:0E0CEE0081838587898B8D80828486888A8C9D
:090CBC00071700000720050124C0
:100C4600C2B500C2B600D2B500E4FEEF1392B4EF0F
:100C5600C313FFD2B600C2B6000EBE08EEE4FEED28
:100C66001392B4EDC313FDD2B600C2B6000EBE0891
:040C7600EEC2B50015
:010C7A002257
:100B7300C2B500C2B600D2B500E4FDEF1392B4EFE4
:100B8300C313FFD2B600C2B6000DBD08EE00E4FDEC
:100B9300A2B4E433FFC43333335480FCEEC3134CA9
:100BA300FED2B600C2B6000DBD08E5C2B500D2B68E
:090BB30000C2B400D2B400AF0688
:010BBC002216
:100C7B00E4FD7F8E120C46E4FCEC900CF593FF74B4
:100C8B00172CF8E6FD120C460CBC07ED7D807F8E11
:030C9B00020C4602
:100CD800E4FBEB900CEE93FF120B7374172BF8A642
:050CE800070BBB07ED46
:010CED0022E4
:100C0400C2A58B807F017E00120C2DD2A77F057EAA
:100C140000120C2DC2A7EBC454F0F5807F017E00B6
:090C2400120C2DD2A77F057E0001
:100C2D00D3EF9400EE9400400F7DC77C01DCFEDD18
:080C3D00FAEF1F70EB1E80E8C6
:010C4500228C
:0C0D0900AB07C2A7C2A6120C04C2A722AE
:0C0D1500AB07C2A7D2A6120C04C2A72292
:100C9E007F32120D097F28120D097F0F120D097F69
:0E0CAE0006120D097F01120D097F80020D094B
:100CC500010A00010800010F0007100500072005B3
:020CD5000124F8
:0B0D2100EF1FAC0670011E4C70F622A4
:10080000120D2C120C9E120C7BE50E706AE508701E
:1008100003120CD87FC9120D097F20120D15E508AF
:100820007012E517B5100DE518B51108E519B512E8
:1008300003750801E508601FE50F70047F01800261
:100840007F008F0FE50F24FF92A092A192A2B2A584
:100850007F647E00120D21E5087003020A2C30B37C
:1008600003020A2C120CFC20B305D2A5E4F50830D3
:10087000B303020A2C80F87FC9120D09E509B407F9
:1008800000503990088AF828287302089F0208A3AC
:100890000208A70208AB0208AF0208B30208B77F3C
:1008A0005380167F6D80127F48800E7F44800A7FC0
:1008B0004D80067F5780027F59120D1520B12612F8
:1008C0000CFC20B10C0509E509C394074003E4F5CD
:1008D00009E51EC39432500A20B107120CFC051E14
:1008E00080EFE4F51E30B0030209BC120CFC30B0FE
:1008F000030209A8E50A603E74102509F806741081
:100900002509F8E6540FD394094004740626F674BA
:10091000102509F8E6C394604008E50994025002E6
:10092000E4F674102509F8E6C39424407BE50964D5
:10093000027075F6807274172509F8067417250978
:10094000F8E6540FD394094004740626F67417256C
:1009500009F8E6C394604008E50994025002E4F601
:1009600074172509F8E6C394244007E509B4020288
:10097000E4F674172509F8E6C394324007E509B494
:100980000302E4F674172509F8E6C394134007E55B
:1009900009B40402E4F674172509F8E6C394074085
:1009A00007E509B405027601E51EC39432500A201A
:1009B000B007120CFC051E80EFE4F51E20B35112A7
:1009C0000CFC20B348630AFF7FCD120D09E50A60D5
:1009D0001F7F41120D15E4F51E7417251EF8E6FF62
:1009E000740B251EF8A607051EE51EB403EB801D3B
:1009F0007F20120D15E4F51E740B251EF8E6FF741A
:100A000017251EF8A607051EE51EB403EB30B3FD3F
:100A1000E50A6018E4F51E7410251EF8E6FF741749
:100A2000251EF8A607051EE51EB403EB120A3202C6
:020A30000809B3
:100A32007FC0120D09E519C4540F2430FF120D15A1
:100A4200E519540F2430FF120D157F2D120D15E5F7
:100A520018C4540F2430FF120D15E518540F24301A
:100A6200FF120D157F2D120D15E517C4540F2430FA
:100A7200FF120D15E517540F2430FF120D157F805C
:100A8200120D097F32120D157F30120D15E51DC4AE
:100A9200540F2430FF120D15E51D540F2430FF12A0
:100AA2000D157F2D120D15E51BC4540F2430FF12B6
:100AB2000D15E51B540F2430FF120D157F2D120D5D
:100AC20015E51AC4540F2430FF120D15E51A540F00
:100AD2002430FF120D157F8D120D09E51C540724D9
:050AE20030FF020D15BC
:070D2C00D288D2A8D2AF2249
:03000300020BBD30
:100BBD00C0E0C0F0C083C082C0D075D000C000C0FE
:100BCD0001C002C003C004C005C006C007120CFC62
:100BDD0020B209630EFF750900120C7BD007D006F9
:100BED00D005D004D003D002D001D000D0D0D08217
:070BFD00D083D0F0D0E032FC
:0C0CFC007F017E267D82DDFEDEFADFF641
:010D080022C8
:03000000020AE70A
:0C0AE700787FE4F6D8FD75811E020B2E0E
:100AF300020800E493A3F8E493A34003F68001F211
:100B030008DFF48029E493A3F85407240CC8C33303
:100B1300C4540F4420C8834004F456800146F6DFD2
:100B2300E4800B0102040810204080900CBCE47E9A
:100B3300019360BCA3FF543F30E509541FFEE493C7
:100B4300A360010ECF54C025E060A840B8E493A38E
:100B5300FAE493A3F8E493A3C8C582C8CAC583CAB9
:100B6300F0A3C8C582C8CAC583CADFE9DEE780BE71
:010CD700001C
:00000001FF
