:0E0CD10081838587898B8D80828486888A8CBA
:090C8600071700000720050124F6
:100C0400C2B500C2B600D2B500E4FEEF1392B4EF51
:100C1400C313FFD2B600C2B6000EBE08EEE4FEED6A
:100C24001392B4EDC313FDD2B600C2B6000EBE08D3
:040C3400EEC2B50057
:010C38002299
:100B7300C2B500C2B600D2B500E4FDEF1392B4EFE4
:100B8300C313FFD2B600C2B6000DBD08EE00E4FDEC
:100B9300A2B4E433FFC43333335480FCEEC3134CA9
:100BA300FED2B600C2B6000DBD08E5C2B500D2B68E
:090BB30000C2B400D2B400AF0688
:010BBC002216
:100C6300E4FD7F8E120C04E4FCEC900CD893FF742B
:100C7300172CF8E6FD120C040CBC07ED7D807F8E6B
:030C8300020C045C
:100CBB00E4FBEB900CD193FF120B7374172BF8A67C
:050CCB00070BBB07ED63
:010CD0002201
:100C3900C2A58F807F017E00120C4AD2A77F057E54
:010C490000AA
:100C4A00D3EF9400EE9400400F7DC77C01DCFEDDFB
:080C5A00FAEF1F70EB1E80E8A9
:010C6200226F
:0A0CF700C2A7C2A6120C39C2A72240
:0A0D0100C2A7D2A6120C39C2A72225
:100CA2007F38120CF77F0F120CF77F06120CF77FBA
:090CB20001120CF77F80020CF71F
:100C8F00010A00010800010F0007100500072005E9
:020C9F0001242E
:0B0CEC00EF1FAC0670011E4C70F622DA
:10080000120D0B120CA2120C63E50E706AE5087053
:1008100003120CBB7FC9120CF77F20120D01E508F3
:100820007012E517B5100DE518B51108E519B512E8
:1008300003750801E508601FE50F70047F01800261
:100840007F008F0FE50F24FF92A092A192A2B2A584
:100850007F647E00120CECE5087003020A2C30B3B2
:1008600003020A2C120CDF20B305D2A5E4F50830F0
:10087000B303020A2C80F87FC9120CF7E509B4070C
:1008800000503990088AF828287302089F0208A3AC
:100890000208A70208AB0208AF0208B30208B77F3C
:1008A0005380167F6D80127F48800E7F44800A7FC0
:1008B0004D80067F5780027F59120D0120B126120C
:1008C0000CDF20B10C0509E509C394074003E4F5EA
:1008D00009E51EC39432500A20B107120CDF051E31
:1008E00080EFE4F51E30B0030209BC120CDF30B01B
:1008F000030209A8E50A603E74102509F806741081
:100900002509F8E6540FD394094004740626F674BA
:10091000102509F8E6C394604008E50994025002E6
:10092000E4F674102509F8E6C39424407BE50964D5
:10093000027075F6807274172509F8067417250978
:10094000F8E6540FD394094004740626F67417256C
:1009500009F8E6C394604008E50994025002E4F601
:1009600074172509F8E6C394244007E509B4020288
:10097000E4F674172509F8E6C394324007E509B494
:100980000302E4F674172509F8E6C394134007E55B
:1009900009B40402E4F674172509F8E6C394074085
:1009A00007E509B405027601E51EC39432500A201A
:1009B000B007120CDF051E80EFE4F51E20B35112C4
:1009C0000CDF20B348630AFF7FCD120CF7E50A6005
:1009D0001F7F41120D01E4F51E7417251EF8E6FF76
:1009E000740B251EF8A607051EE51EB403EB801D3B
:1009F0007F20120D01E4F51E740B251EF8E6FF742E
:100A000017251EF8A607051EE51EB403EB30B3FD3F
:100A1000E50A6018E4F51E7410251EF8E6FF741749
:100A2000251EF8A607051EE51EB403EB120A3202C6
:020A30000809B3
:100A32007FC0120CF7E519C4540F2430FF120D01C8
:100A4200E519540F2430FF120D017F2D120D01E51F
:100A520018C4540F2430FF120D01E518540F24302E
:100A6200FF120D017F2D120D01E517C4540F243022
:100A7200FF120D01E517540F2430FF120D017F8084
:100A8200120CF77F32120D017F30120D01E51DC4E9
:100A9200540F2430FF120D01E51D540F2430FF12B4
:100AA2000D017F2D120D01E51BC4540F2430FF12DE
:100AB2000D01E51B540F2430FF120D017F2D120D85
:100AC20001E51AC4540F2430FF120D01E51A540F28
:100AD2002430FF120D017F8D120CF7E51C54072400
:050AE20030FF020D01D0
:070D0B00D288D2A8D2AF226A
:03000300020BBD30
:100BBD00C0E0C0F0C083C082C0D075D000C000C0FE
:100BCD0001C002C003C004C005C006C007120CDF7F
:100BDD0020B209630EFF750900120C63D007D00611
:100BED00D005D004D003D002D001D000D0D0D08217
:070BFD00D083D0F0D0E032FC
:0C0CDF007F017E267D82DDFEDEFADFF65E
:010CEB0022E6
:03000000020AE70A
:0C0AE700787FE4F6D8FD75811E020B2E0E
:100AF300020800E493A3F8E493A34003F68001F211
:100B030008DFF48029E493A3F85407240CC8C33303
:100B1300C4540F4420C8834004F456800146F6DFD2
:100B2300E4800B0102040810204080900C86E47ED0
:100B3300019360BCA3FF543F30E509541FFEE493C7
:100B4300A360010ECF54C025E060A840B8E493A38E
:100B5300FAE493A3F8E493A3C8C582C8CAC583CAB9
:100B6300F0A3C8C582C8CAC583CADFE9DEE780BE71
:010CA1000052
:00000001FF
